:0400000002002132A7
:03000B000200D818
:0100130032BA
:03001B000201CE11
:10007A0075210075220075230075240D75250D75EF
:0E008A00260075270075280075290D02001E3E
:03001E00020203D8
:10009800AF827D007E008F037C00C3ED9BEE648001
:1000A8008CF063F08095F0501D7B007C00C3EB94CE
:1000B80064EC6480948050070BBB00F10C80EE0D5B
:1000C800BD00D30E80D022E58290047393F5802280
:1000D800C020C0E0C0F0C082C083C007C006C00511
:1000E800C004C003C002C001C000C0D075D01875DC
:1000F8008CFC758A18052374F6252340030201B188
:100108007401B5282CE52775F003A42401FE7400BA
:1001180035F0FF0EBE00010F8E828F83E0FCA3E056
:10012800FD0CBC00010D8E828F83ECF0EDA3F080F6
:10013800697402B52864E5227060E521602FE52620
:1001480075F003A42401FE740035F0FF0EBE000113
:100158000F8E828F83E0FCA3E0FDEC24FCFCED34E1
:10016800FFFD8E828F83ECF0EDA3F0802DE52675E0
:10017800F003A42401FE740035F0FF0EBE00010F49
:100188008E828F83E0FCA3E0FDEC24FEFCED34FFBF
:10019800FD8E828F83ECF0EDA3F075230075D000FF
:1001A80012040175D018858224D0D0D000D001D097
:1001B80002D003D004D005D006D007D083D082D097
:1001C800F0D0E0D02032C0E0C0F0C082C083C0D000
:1001D80075D010E52975F002A42457F5827404350A
:1001E800F0F583E493FEA3E493FF8F8D8E8BB2A387
:1001F800D0D0D083D082D0F0D0E032D2AF75891180
:10020800758CFC758A18D28CD2A9758DFC758B18E3
:10021800D28ED2AB75800075900075A0007F00BFAC
:100228006400502AEF75F003A4FDAEF02401F582B6
:10023800EE3400F583740DF0ED2401FDEE3400FE7C
:100248008D828E83A37401F0E4A3F00F80D17582B0
:100258000F120098740EB5240280030202E90528E3
:100268007525787524787526007F00C3EF9527508B
:1002780030EF75F002A4242DFD740135F0FEEF7502
:10028800F003A42401FB740035F0FC8B828C83A35B
:10029800E0FBA3E0FC8D828E83EBF0ECA3F00F80F3
:1002A800CAE52824FD503A752800752700752200F4
:1002B8007F00BF6400502AEF75F003A4FDAEF02460
:1002C80001F582EE3400F583740DF0ED2401FDEEA6
:1002D8003400FE8D828E83A37401F0E4A3F00F80B6
:1002E800D1740DB5240A7402B52805E521F4F52169
:1002F800740FB52405E522F4F522E5287028E525D4
:10030800B52402800A7478B524028003852425E583
:100318002524F24005852529800375290D85298224
:100328001200CF0202567401B5283475820E1200ED
:10033800CFE525B5240302025605277478B52403B2
:1003480075240DE52775F003A42401F582740035A2
:10035800F0F583E524F085242585252902025674C5
:1003680002B528028003020256E522600302025603
:10037800C3E5279526503D7F00C3EF95275032EF00
:1003880075F003A42401FD740035F0FE0DBD0001D5
:100398000EEF75F002A4242DF582740135F0F58373
:1003A800E0FBA3E0FC8D828E83EBF0ECA3F00F80E2
:1003B800C8752600E52675F003A42401FE740035EF
:1003C800F0FF8E828F83A3E0A3E030E7020526E5E5
:1003D8002675F003A42401F582740035F0F583E056
:1003E800F529C3940D50098529821200CF020256BF
:0903F80075820F1200CF020256BB
:100457008CF8F3F85CF9B8F915FA67FAB9FA05FBFD
:100467004BFB90FBB4FB0CFC46FCFFFFC0F9A4B0B0
:10047700999282F880908800A7402F8E0000000094
:100487000000000000000000000000000000000065
:100497000000000000000000000000000000000055
:1004A7000000000000000000000000000000000045
:1004B7000000000000000000000000000000000035
:1004C7000000000000000000000000000000000025
:1004D7000000000000000000000000000000000015
:1004E7000000000000000000000000000000000005
:1004F70000000000000000000000000000000000F5
:1005070000000000000000000000000000000000E4
:1005170000000000000000000000000000000000D4
:1005270000000000000000000000000000000000C4
:1005370000000000000000000000000000000000B4
:0405470000000000B0
:06005000E478FFF6D8FD84
:10002E0079C8E94400601B7A01900483782D75A08D
:10003E0001E493F2A308B8000205A0D9F4DAF27530
:02004E00A0FF11
:100401007F007E00BE040050458E058DF005F0741E
:1004110010800225E0D5F0FBF4F5907D007C00BC56
:1004210004005025E590540F8CF005F08002C313B1
:10043100D5F0FB20E00E8F03EB2B25E0FB8D02EACC
:100441002BF582220C8C0580D60E8E0780B6758224
:0204510078220F
:100056007800E84400600A790175A000E4F309D845
:10006600FC782CE84401600C7902900001E4F0A3CE
:04007600D8FCD9FADF
:0D002100758129120453E582600302001E60
:04045300758200228C
:00000001FF
